{"abi":[{"type":"constructor","inputs":[],"stateMutability":"nonpayable"},{"type":"function","name":"BLOCKS_PER_YEAR","inputs":[],"outputs":[{"name":"","type":"uint256","internalType":"uint256"}],"stateMutability":"view"},{"type":"function","name":"INITIAL_SUPPLY","inputs":[],"outputs":[{"name":"","type":"uint256","internalType":"uint256"}],"stateMutability":"view"},{"type":"function","name":"MAX_STAKING_RATE","inputs":[],"outputs":[{"name":"","type":"uint256","internalType":"uint256"}],"stateMutability":"view"},{"type":"function","name":"MAX_SUPPLY","inputs":[],"outputs":[{"name":"","type":"uint256","internalType":"uint256"}],"stateMutability":"view"},{"type":"function","name":"MIN_STAKE","inputs":[],"outputs":[{"name":"","type":"uint256","internalType":"uint256"}],"stateMutability":"view"},{"type":"function","name":"PROPOSAL_COOLDOWN","inputs":[],"outputs":[{"name":"","type":"uint256","internalType":"uint256"}],"stateMutability":"view"},{"type":"function","name":"PROPOSAL_THRESHOLD","inputs":[],"outputs":[{"name":"","type":"uint256","internalType":"uint256"}],"stateMutability":"view"},{"type":"function","name":"TIMELOCK_DELAY","inputs":[],"outputs":[{"name":"","type":"uint256","internalType":"uint256"}],"stateMutability":"view"},{"type":"function","name":"allowance","inputs":[{"name":"owner","type":"address","internalType":"address"},{"name":"spender","type":"address","internalType":"address"}],"outputs":[{"name":"","type":"uint256","internalType":"uint256"}],"stateMutability":"view"},{"type":"function","name":"approve","inputs":[{"name":"spender","type":"address","internalType":"address"},{"name":"amount","type":"uint256","internalType":"uint256"}],"outputs":[{"name":"","type":"bool","internalType":"bool"}],"stateMutability":"nonpayable"},{"type":"function","name":"balanceOf","inputs":[{"name":"account","type":"address","internalType":"address"}],"outputs":[{"name":"","type":"uint256","internalType":"uint256"}],"stateMutability":"view"},{"type":"function","name":"claimRewards","inputs":[],"outputs":[],"stateMutability":"nonpayable"},{"type":"function","name":"createProposal","inputs":[{"name":"description","type":"string","internalType":"string"}],"outputs":[{"name":"","type":"uint256","internalType":"uint256"}],"stateMutability":"nonpayable"},{"type":"function","name":"createSnapshot","inputs":[],"outputs":[{"name":"","type":"uint256","internalType":"uint256"}],"stateMutability":"nonpayable"},{"type":"function","name":"createTimelock","inputs":[{"name":"recipient","type":"address","internalType":"address"},{"name":"amount","type":"uint256","internalType":"uint256"},{"name":"delay","type":"uint256","internalType":"uint256"}],"outputs":[],"stateMutability":"nonpayable"},{"type":"function","name":"currentSnapshotId","inputs":[],"outputs":[{"name":"","type":"uint256","internalType":"uint256"}],"stateMutability":"view"},{"type":"function","name":"decimals","inputs":[],"outputs":[{"name":"","type":"uint8","internalType":"uint8"}],"stateMutability":"view"},{"type":"function","name":"decreaseAllowance","inputs":[{"name":"spender","type":"address","internalType":"address"},{"name":"subtractedValue","type":"uint256","internalType":"uint256"}],"outputs":[{"name":"","type":"bool","internalType":"bool"}],"stateMutability":"nonpayable"},{"type":"function","name":"depositToTreasury","inputs":[{"name":"amount","type":"uint256","internalType":"uint256"}],"outputs":[],"stateMutability":"nonpayable"},{"type":"function","name":"emergencyWithdraw","inputs":[],"outputs":[],"stateMutability":"nonpayable"},{"type":"function","name":"executeProposal","inputs":[{"name":"proposalId","type":"uint256","internalType":"uint256"}],"outputs":[],"stateMutability":"nonpayable"},{"type":"function","name":"executeTimelock","inputs":[],"outputs":[],"stateMutability":"nonpayable"},{"type":"function","name":"getCurrentSnapshotId","inputs":[],"outputs":[{"name":"","type":"uint256","internalType":"uint256"}],"stateMutability":"view"},{"type":"function","name":"getPendingRewards","inputs":[{"name":"user","type":"address","internalType":"address"}],"outputs":[{"name":"","type":"uint256","internalType":"uint256"}],"stateMutability":"view"},{"type":"function","name":"getProposal","inputs":[{"name":"proposalId","type":"uint256","internalType":"uint256"}],"outputs":[{"name":"","type":"tuple","internalType":"struct DSWDAO.Proposal","components":[{"name":"id","type":"uint256","internalType":"uint256"},{"name":"proposer","type":"address","internalType":"address"},{"name":"votingDeadline","type":"uint256","internalType":"uint256"},{"name":"executionTime","type":"uint256","internalType":"uint256"},{"name":"forVotes","type":"uint256","internalType":"uint256"},{"name":"againstVotes","type":"uint256","internalType":"uint256"},{"name":"executed","type":"bool","internalType":"bool"},{"name":"description","type":"string","internalType":"string"},{"name":"snapshotId","type":"uint256","internalType":"uint256"}]}],"stateMutability":"view"},{"type":"function","name":"getSnapshotBalance","inputs":[{"name":"snapshotId","type":"uint256","internalType":"uint256"},{"name":"account","type":"address","internalType":"address"}],"outputs":[{"name":"","type":"uint256","internalType":"uint256"}],"stateMutability":"view"},{"type":"function","name":"getSnapshotVotingPower","inputs":[{"name":"snapshotId","type":"uint256","internalType":"uint256"},{"name":"account","type":"address","internalType":"address"}],"outputs":[{"name":"","type":"uint256","internalType":"uint256"}],"stateMutability":"view"},{"type":"function","name":"getTimelock","inputs":[{"name":"recipient","type":"address","internalType":"address"}],"outputs":[{"name":"","type":"tuple","internalType":"struct DSWDAO.Timelock","components":[{"name":"amount","type":"uint256","internalType":"uint256"},{"name":"recipient","type":"address","internalType":"address"},{"name":"releaseTime","type":"uint256","internalType":"uint256"},{"name":"executed","type":"bool","internalType":"bool"}]}],"stateMutability":"view"},{"type":"function","name":"getVotingPower","inputs":[{"name":"user","type":"address","internalType":"address"}],"outputs":[{"name":"","type":"uint256","internalType":"uint256"}],"stateMutability":"view"},{"type":"function","name":"increaseAllowance","inputs":[{"name":"spender","type":"address","internalType":"address"},{"name":"addedValue","type":"uint256","internalType":"uint256"}],"outputs":[{"name":"","type":"bool","internalType":"bool"}],"stateMutability":"nonpayable"},{"type":"function","name":"initializeSnapshotData","inputs":[{"name":"accounts","type":"address[]","internalType":"address[]"}],"outputs":[],"stateMutability":"nonpayable"},{"type":"function","name":"isPaused","inputs":[],"outputs":[{"name":"","type":"bool","internalType":"bool"}],"stateMutability":"view"},{"type":"function","name":"lastRewardUpdate","inputs":[],"outputs":[{"name":"","type":"uint256","internalType":"uint256"}],"stateMutability":"view"},{"type":"function","name":"name","inputs":[],"outputs":[{"name":"","type":"string","internalType":"string"}],"stateMutability":"view"},{"type":"function","name":"owner","inputs":[],"outputs":[{"name":"","type":"address","internalType":"address"}],"stateMutability":"view"},{"type":"function","name":"pause","inputs":[],"outputs":[],"stateMutability":"nonpayable"},{"type":"function","name":"paused","inputs":[],"outputs":[{"name":"","type":"bool","internalType":"bool"}],"stateMutability":"view"},{"type":"function","name":"proposalCount","inputs":[],"outputs":[{"name":"","type":"uint256","internalType":"uint256"}],"stateMutability":"view"},{"type":"function","name":"proposalCreationTime","inputs":[{"name":"","type":"address","internalType":"address"}],"outputs":[{"name":"","type":"uint256","internalType":"uint256"}],"stateMutability":"view"},{"type":"function","name":"proposals","inputs":[{"name":"","type":"uint256","internalType":"uint256"}],"outputs":[{"name":"id","type":"uint256","internalType":"uint256"},{"name":"proposer","type":"address","internalType":"address"},{"name":"votingDeadline","type":"uint256","internalType":"uint256"},{"name":"executionTime","type":"uint256","internalType":"uint256"},{"name":"forVotes","type":"uint256","internalType":"uint256"},{"name":"againstVotes","type":"uint256","internalType":"uint256"},{"name":"executed","type":"bool","internalType":"bool"},{"name":"description","type":"string","internalType":"string"},{"name":"snapshotId","type":"uint256","internalType":"uint256"}],"stateMutability":"view"},{"type":"function","name":"renounceOwnership","inputs":[],"outputs":[],"stateMutability":"nonpayable"},{"type":"function","name":"setStakingRewardRate","inputs":[{"name":"newRate","type":"uint256","internalType":"uint256"}],"outputs":[],"stateMutability":"nonpayable"},{"type":"function","name":"snapshotBalanceOf","inputs":[{"name":"","type":"uint256","internalType":"uint256"},{"name":"","type":"address","internalType":"address"}],"outputs":[{"name":"","type":"uint256","internalType":"uint256"}],"stateMutability":"view"},{"type":"function","name":"snapshotTotalSupply","inputs":[{"name":"","type":"uint256","internalType":"uint256"}],"outputs":[{"name":"","type":"uint256","internalType":"uint256"}],"stateMutability":"view"},{"type":"function","name":"snapshotVotingPower","inputs":[{"name":"","type":"uint256","internalType":"uint256"},{"name":"","type":"address","internalType":"address"}],"outputs":[{"name":"","type":"uint256","internalType":"uint256"}],"stateMutability":"view"},{"type":"function","name":"stake","inputs":[{"name":"amount","type":"uint256","internalType":"uint256"}],"outputs":[],"stateMutability":"nonpayable"},{"type":"function","name":"stakes","inputs":[{"name":"","type":"address","internalType":"address"}],"outputs":[{"name":"amount","type":"uint256","internalType":"uint256"},{"name":"stakingTime","type":"uint256","internalType":"uint256"},{"name":"lastRewardBlock","type":"uint256","internalType":"uint256"},{"name":"pendingRewards","type":"uint256","internalType":"uint256"},{"name":"exists","type":"bool","internalType":"bool"}],"stateMutability":"view"},{"type":"function","name":"stakingRewardRate","inputs":[],"outputs":[{"name":"","type":"uint256","internalType":"uint256"}],"stateMutability":"view"},{"type":"function","name":"symbol","inputs":[],"outputs":[{"name":"","type":"string","internalType":"string"}],"stateMutability":"view"},{"type":"function","name":"timelocks","inputs":[{"name":"","type":"address","internalType":"address"}],"outputs":[{"name":"amount","type":"uint256","internalType":"uint256"},{"name":"recipient","type":"address","internalType":"address"},{"name":"releaseTime","type":"uint256","internalType":"uint256"},{"name":"executed","type":"bool","internalType":"bool"}],"stateMutability":"view"},{"type":"function","name":"totalStaked","inputs":[],"outputs":[{"name":"","type":"uint256","internalType":"uint256"}],"stateMutability":"view"},{"type":"function","name":"totalSupply","inputs":[],"outputs":[{"name":"","type":"uint256","internalType":"uint256"}],"stateMutability":"view"},{"type":"function","name":"transfer","inputs":[{"name":"to","type":"address","internalType":"address"},{"name":"amount","type":"uint256","internalType":"uint256"}],"outputs":[{"name":"","type":"bool","internalType":"bool"}],"stateMutability":"nonpayable"},{"type":"function","name":"transferFrom","inputs":[{"name":"from","type":"address","internalType":"address"},{"name":"to","type":"address","internalType":"address"},{"name":"amount","type":"uint256","internalType":"uint256"}],"outputs":[{"name":"","type":"bool","internalType":"bool"}],"stateMutability":"nonpayable"},{"type":"function","name":"transferOwnership","inputs":[{"name":"newOwner","type":"address","internalType":"address"}],"outputs":[],"stateMutability":"nonpayable"},{"type":"function","name":"treasuryBalance","inputs":[],"outputs":[{"name":"","type":"uint256","internalType":"uint256"}],"stateMutability":"view"},{"type":"function","name":"unpause","inputs":[],"outputs":[],"stateMutability":"nonpayable"},{"type":"function","name":"unstake","inputs":[{"name":"amount","type":"uint256","internalType":"uint256"}],"outputs":[],"stateMutability":"nonpayable"},{"type":"function","name":"vote","inputs":[{"name":"proposalId","type":"uint256","internalType":"uint256"},{"name":"support","type":"bool","internalType":"bool"}],"outputs":[],"stateMutability":"nonpayable"},{"type":"function","name":"votes","inputs":[{"name":"","type":"address","internalType":"address"},{"name":"","type":"uint256","internalType":"uint256"}],"outputs":[{"name":"","type":"bool","internalType":"bool"}],"stateMutability":"view"},{"type":"function","name":"votingPower","inputs":[{"name":"","type":"address","internalType":"address"}],"outputs":[{"name":"","type":"uint256","internalType":"uint256"}],"stateMutability":"view"},{"type":"function","name":"withdrawFromTreasury","inputs":[{"name":"amount","type":"uint256","internalType":"uint256"}],"outputs":[],"stateMutability":"nonpayable"},{"type":"event","name":"Approval","inputs":[{"name":"owner","type":"address","indexed":true,"internalType":"address"},{"name":"spender","type":"address","indexed":true,"internalType":"address"},{"name":"value","type":"uint256","indexed":false,"internalType":"uint256"}],"anonymous":false},{"type":"event","name":"OwnershipTransferred","inputs":[{"name":"previousOwner","type":"address","indexed":true,"internalType":"address"},{"name":"newOwner","type":"address","indexed":true,"internalType":"address"}],"anonymous":false},{"type":"event","name":"Paused","inputs":[{"name":"account","type":"address","indexed":false,"internalType":"address"}],"anonymous":false},{"type":"event","name":"ProposalCreated","inputs":[{"name":"proposalId","type":"uint256","indexed":true,"internalType":"uint256"},{"name":"proposer","type":"address","indexed":true,"internalType":"address"},{"name":"description","type":"string","indexed":false,"internalType":"string"},{"name":"snapshotId","type":"uint256","indexed":false,"internalType":"uint256"}],"anonymous":false},{"type":"event","name":"ProposalExecuted","inputs":[{"name":"proposalId","type":"uint256","indexed":true,"internalType":"uint256"}],"anonymous":false},{"type":"event","name":"RewardsClaimed","inputs":[{"name":"user","type":"address","indexed":true,"internalType":"address"},{"name":"amount","type":"uint256","indexed":false,"internalType":"uint256"}],"anonymous":false},{"type":"event","name":"SnapshotCreated","inputs":[{"name":"snapshotId","type":"uint256","indexed":true,"internalType":"uint256"}],"anonymous":false},{"type":"event","name":"Staked","inputs":[{"name":"user","type":"address","indexed":true,"internalType":"address"},{"name":"amount","type":"uint256","indexed":false,"internalType":"uint256"}],"anonymous":false},{"type":"event","name":"StakingRateUpdated","inputs":[{"name":"newRate","type":"uint256","indexed":false,"internalType":"uint256"}],"anonymous":false},{"type":"event","name":"TimelockCreated","inputs":[{"name":"recipient","type":"address","indexed":true,"internalType":"address"},{"name":"amount","type":"uint256","indexed":false,"internalType":"uint256"},{"name":"releaseTime","type":"uint256","indexed":false,"internalType":"uint256"}],"anonymous":false},{"type":"event","name":"TimelockExecuted","inputs":[{"name":"recipient","type":"address","indexed":true,"internalType":"address"},{"name":"amount","type":"uint256","indexed":false,"internalType":"uint256"}],"anonymous":false},{"type":"event","name":"TokensBurned","inputs":[{"name":"burner","type":"address","indexed":true,"internalType":"address"},{"name":"amount","type":"uint256","indexed":false,"internalType":"uint256"}],"anonymous":false},{"type":"event","name":"Transfer","inputs":[{"name":"from","type":"address","indexed":true,"internalType":"address"},{"name":"to","type":"address","indexed":true,"internalType":"address"},{"name":"value","type":"uint256","indexed":false,"internalType":"uint256"}],"anonymous":false},{"type":"event","name":"TreasuryDeposited","inputs":[{"name":"from","type":"address","indexed":true,"internalType":"address"},{"name":"amount","type":"uint256","indexed":false,"internalType":"uint256"}],"anonymous":false},{"type":"event","name":"TreasuryWithdrawn","inputs":[{"name":"to","type":"address","indexed":true,"internalType":"address"},{"name":"amount","type":"uint256","indexed":false,"internalType":"uint256"}],"anonymous":false},{"type":"event","name":"Unpaused","inputs":[{"name":"account","type":"address","indexed":false,"internalType":"address"}],"anonymous":false},{"type":"event","name":"Unstaked","inputs":[{"name":"user","type":"address","indexed":true,"internalType":"address"},{"name":"amount","type":"uint256","indexed":false,"internalType":"uint256"}],"anonymous":false},{"type":"event","name":"Voted","inputs":[{"name":"proposalId","type":"uint256","indexed":true,"internalType":"uint256"},{"name":"voter","type":"address","indexed":true,"internalType":"address"},{"name":"support","type":"bool","indexed":false,"internalType":"bool"},{"name":"votes","type":"uint256","indexed":false,"internalType":"uint256"}],"anonymous":false}],"bytecode":{"object":"0x6080346200048a576001600160401b03906040908082018381118282101762000395578252600c81526020906b2229aba220a7902a37b5b2b760a11b82820152825193838501858110828211176200039557845260038086526244535760e81b8487015282519180831162000395578154926001948585811c951680156200047f575b878610146200046b578190601f9586811162000418575b508790868311600114620003b5575f92620003a9575b50505f1982851b1c191690851b1782555b8651908111620003955760049182548581811c911680156200038a575b8782101462000377578481116200032f575b5085848311600114620002c657829394959697985f93620002ba575b505082861b925f19911b1c19161781555b62000127336200048e565b8260065560ff19918260075416600755600f60085533156200027857506002546a108b2a2c28029094000000908181018091116200026557600255335f525f8552855f2081815401905585519081525f7fddf252ad1be2c89b69c2b068fc378daa952ba7f163c4a11628f55a4df523b3ef863393a3620001a7336200048e565b6007549060ff82166200022f575016176007557f62e78cea01bee320cd4e420270b5ea74000d11b0c9f74754ebdbfc544b05a258818351338152a143600c5543600d55601460025491435f5252815f2055600d549051907fb3f0c2b18fd39e8cee5f554c26a84565b651237746f9b33337e40d5abab734005f80a2612d1d9081620004d78239f35b855162461bcd60e51b8152908101859052601060248201526f14185d5cd8589b194e881c185d5cd95960821b6044820152606490fd5b601183634e487b7160e01b5f525260245ffd5b855162461bcd60e51b815291820185905260248201527f45524332303a206d696e7420746f20746865207a65726f206164647265737300604482015260649150fd5b015191505f806200010b565b90601f19831691845f52875f20925f5b818110620003195750998488999a9b9896979810620002ff575b50505050811b0181556200011c565b01519060f8845f19921b161c191690555f808080620002f0565b8b830151855593880193918901918901620002d6565b835f52865f208580850160051c8201928986106200036d575b0160051c019086905b82811062000361575050620000ef565b5f815501869062000351565b9250819262000348565b602284634e487b7160e01b5f525260245ffd5b90607f1690620000dd565b634e487b7160e01b5f52604160045260245ffd5b015190505f80620000af565b90879350601f19831691865f52895f20925f5b8b828210620004015750508411620003e9575b505050811b018255620000c0565b01515f1983871b60f8161c191690555f8080620003db565b8385015186558b97909501949384019301620003c8565b909150845f52875f208680850160051c8201928a861062000461575b918991869594930160051c01915b8281106200045257505062000099565b5f815585945089910162000442565b9250819262000434565b634e487b7160e01b5f52602260045260245ffd5b94607f169462000082565b5f80fd5b600580546001600160a01b039283166001600160a01b0319821681179092559091167f8be0079c531659141344cd1fd0a4f28419497f9722a3daafe3b4186f6b6457e05f80a356fe60806040526004361015610011575f80fd5b60e05f35811c908163013cf08b1461235157816306fdde03146122ae578163095ea7b3146122885781630d61b519146121675781631369a927146121065781631504d8f0146120e457816315800d1414611f7757816316934fc414611f0e57816318160ddd14611ef157816323b872dd14611db15781632e17de7814611c2f5781632ff2e9dc14611c0a578163313ce56714611bef578163313dab2014611bd257816332cb6b0c14611bad578163372500ab146119ef57816339509351146119a25781633f4ba83a14611909578163467f67f9146118ec57816349c2a1a6146114ba5781634f3fc2df1461149d5781635439ad86146111725781635ba1c1a9146114805781635c975abb14610c385781635ee7a94214611456578163634daf761461138957816363555624146113cd57816365e789a71461138957816370a082311461136b578163715018a6146113105781637d7510e614610c5a578163817b1cd2146112f35781638456cb591461129a5781638da5cb5b1461127257816395d89b411461118f578163970875ce146111725781639f2524ee14611129578163a3c2710d1461110c578163a457c2d71461105e578163a694fc3a14610e73578163a6c2660314610e4f578163a9059cbb14610db0578163aa5134ba14610c9e578163b023a0d614610c5a578163b187bd2614610c38578163b7d6851914610b60578163bb4d443614610b1d578163bf1e799b14610a64578163c07473f614610a2c578163c0e58a0e14610999578163c7f758a81461085957508063c9d27afe1461069d578063cb1c2b5c1461067a578063cdee152e14610642578063d04053eb14610627578063d37db1d21461060a578063da35c664146105ed578063db2e21bc14610545578063dd62ed3e146104f8578063edfe6c4b146103cc578063f2fde38b146103095763f6ed2017146102c6575f80fd5b346103055760203660031901126103055760206102fd6102e4612587565b6102f86001600160a01b0382161515612bba565b612bfd565b604051908152f35b5f80fd5b3461030557602036600319011261030557610322612587565b61032a6125b3565b6001600160a01b0390811690811561037857600554826001600160601b0360a01b821617600555167f8be0079c531659141344cd1fd0a4f28419497f9722a3daafe3b4186f6b6457e05f80a3005b60405162461bcd60e51b815260206004820152602660248201527f4f776e61626c653a206e6577206f776e657220697320746865207a65726f206160448201526564647265737360d01b6064820152608490fd5b3461030557602080600319360112610305576004359067ffffffffffffffff808311610305573660238401121561030557826004013590811161030557602492838101908436918460051b010111610305576104266125b3565b5f5b82811061043157005b610461610447610442838686612caf565b612cd3565b6001600160a01b03165f9081526020819052604090205490565b600d80545f908152601587526040902090916001600160a01b03918261048b610442878a8a612caf565b165f52875260405f2055806104a4610442858888612caf565b165f52600f865260405f205491545f526016865260405f20906104cb610442858888612caf565b165f52855260405f20555f1981146104e557600101610428565b84634e487b7160e01b5f5260116004525ffd5b3461030557604036600319011261030557610511612587565b61051961259d565b9060018060a01b038091165f52600160205260405f2091165f52602052602060405f2054604051908152f35b34610305575f3660031901126103055761055d6125b3565b305f525f60205260405f2054600b5481039081116105d957600a54808203918083116105d957146105a15760055461059f91906001600160a01b03163061287d565b005b60405162461bcd60e51b815260206004820152601060248201526f44535744414f3a204e6f2066756e647360801b6044820152606490fd5b634e487b7160e01b5f52601160045260245ffd5b34610305575f366003190112610305576020600954604051908152f35b34610305575f366003190112610305576020604051622014808152f35b34610305575f36600319011261030557602060405160328152f35b34610305576020366003190112610305576001600160a01b03610663612587565b165f526013602052602060405f2054604051908152f35b34610305575f366003190112610305576020604051683635c9adc5dea000008152f35b3461030557604036600319011261030557600435602435908115159182810361030557815f5260206010815260405f206106d984825414612ac8565b6002810154421161081d57335f526011825260405f20845f52825260ff60405f2054166107e05760088101545f526016825260405f20335f52825260405f205492831561079b57156107865760040161073383825461260b565b90555b335f526011815260405f20835f52815260405f20600160ff198254161790556040519384528301527f7c2de587c00d75474a0c6c6fa96fd3b45dc974cd4e8a75f712bb84c950dce1b560403393a3005b60050161079483825461260b565b9055610736565b60405162461bcd60e51b815260048101849052601760248201527f44535744414f3a204e6f20766f74696e6720706f7765720000000000000000006044820152606490fd5b60405162461bcd60e51b81526004810183905260156024820152741114d5d11053ce88105b1c9958591e481d9bdd1959605a1b6044820152606490fd5b60405162461bcd60e51b81526004810183905260146024820152731114d5d11053ce88159bdd1a5b99c8195b99195960621b6044820152606490fd5b346103055760209081600319360112610305576040516108788161244d565b5f81525f838201525f60408201525f60608201525f60808201525f60a08201525f60c08201526060828201525f610100809201526004355f526010835260405f209061098f60405180946108cb8261244d565b8454825260018060a01b039485600182015416958884019687526002820154604085019081526003830154606086019081526004840154916080870192835260058501549360a08801948552600860ff6006880154169660c08a01971515885288610938600783016124a8565b9a01998a5201549a8a8d019b8c526040518e819f9e829f835251910152511660408c01525160608b01525160808a01525160a08901525160c088015251151590860152516101208093860152610140850190612549565b9151908301520390f35b34610305576020366003190112610305576004356109b5612827565b6109bd6127e3565b6109c8811515612755565b335f525f6020526109df8160405f20541015612797565b6109ea81303361287d565b6109f681600b5461260b565b600b556040519081527f8283e6b33f7f1cfc32820a5fd82cd9e5224d98c14133977f1e7902ce920e51ce60203392a26001600655005b34610305576020366003190112610305576001600160a01b03610a4d612587565b165f52600f602052602060405f2054604051908152f35b34610305576020366003190112610305576080610a7f612587565b5f6060604051610a8e81612431565b828152602081018390526040810183905201526001600160a01b03908116610ab7811515612bba565b5f52601260205260405f2060405190610acf82612431565b8054928383528060018301541660208401908152606060ff60036002860154956040880196875201541694019315158452604051948552511660208401525160408301525115156060820152f35b34610305576020366003190112610305576001600160a01b03610b3e612587565b16610b4a811515612bba565b5f52600f602052602060405f2054604051908152f35b3461030557602036600319011261030557600435610b7c6125b3565b60328111610bfb576008548114610bc2576020817f92749c46491117f2352ccdba7275f6a209aa226631d3fdae50e5a4570d35d1f59260085543600c55604051908152a1005b60405162461bcd60e51b815260206004820152601160248201527044535744414f3a2053616d65207261746560781b6044820152606490fd5b60405162461bcd60e51b8152602060048201526015602482015274088a6ae88829e7440a4c2e8ca40e8dede40d0d2ced605b1b6044820152606490fd5b34610305575f36600319011261030557602060ff600754166040519015158152f35b3461030557604036600319011261030557610c7361259d565b6004355f52601660205260405f209060018060a01b03165f52602052602060405f2054604051908152f35b34610305575f36600319011261030557610cb6612827565b335f52601260205260405f2080548015610d755760028201544210610d3057610cfc906003830160018154610cee60ff821615612b14565b60ff1916179055333061287d565b546040519081527f6af68ec9239b5875de59de01d4528dc5b630a1dd3273ec9b749c669334f6ebd560203392a26001600655005b60405162461bcd60e51b815260206004820152601760248201527f44535744414f3a2054696d656c6f636b206163746976650000000000000000006044820152606490fd5b60405162461bcd60e51b815260206004820152601360248201527244535744414f3a204e6f2074696d656c6f636b60681b6044820152606490fd5b3461030557604036600319011261030557610dc9612587565b610dfe602435610dd76127e3565b6001600160a01b03831692610ded841515612bba565b610df8821515612755565b3361287d565b335f526020905f825260405f2054600d545f526015835260405f20335f52835260405f2055805f525f825260405f205490600d545f526015835260405f20905f52825260405f205560405160018152f35b34610305575f36600319011261030557602060405169021e19e0c9bab24000008152f35b34610305576020806003193601126103055760043590610e91612827565b610e996127e3565b610ea4821515612755565b683635c9adc5dea00000821061101a577f9e71bc8eea02a63969f509818f2dafb9254532904319f9dbda79b67bd34a5f3d90335f525f8152610eec8360405f20541015612797565b335f52600e815260405f2060ff6004820154165f14610fab57610f0e33612a2f565b610f1984303361287d565b610f2484825461260b565b8155600142910155610f3883600a5461260b565b600a55335f52600f8152610f508360405f205461260b565b335f52600f825260405f20555f815260405f2054600d545f526015825260405f20335f52825260405f2055600f815260405f2054600d545f526016825260405f20335f52825260405f20556040519283523392a26001600655005b50604051610fb88161246a565b5f81526110158282014281526040830143815260608401905f8252608085019260018452335f52600e875260405f2095518655516001860155516002850155516003840155511515600483019060ff801983541691151516179055565b610f0e565b6064906040519062461bcd60e51b82526004820152601b60248201527f44535744414f3a2042656c6f77206d696e696d756d207374616b6500000000006044820152fd5b3461030557604036600319011261030557611077612587565b60243590335f52600160205260405f2060018060a01b0382165f5260205260405f2054918083106110b9576110ae92039033612618565b602060405160018152f35b60405162461bcd60e51b815260206004820152602560248201527f45524332303a2064656372656173656420616c6c6f77616e63652062656c6f77604482015264207a65726f60d81b6064820152608490fd5b34610305575f366003190112610305576020600c54604051908152f35b34610305576040366003190112610305576001600160a01b0361114a612587565b165f52601160205260405f206024355f52602052602060ff60405f2054166040519015158152f35b34610305575f366003190112610305576020600d54604051908152f35b34610305575f366003190112610305576040515f6004546111af816123f9565b8084529060019081811690811561124b57506001146111f1575b6111ed846111d981860382612486565b604051918291602083526020830190612549565b0390f35b60045f90815292507f8a35acfbc15ff81a39ae7d344fd709f28e8600b4aa8c65c6b64bfe7fe36bd19b5b8284106112335750505081016020016111d9826111c9565b8054602085870181019190915290930192810161121b565b60ff191660208087019190915292151560051b850190920192506111d991508390506111c9565b34610305575f366003190112610305576005546040516001600160a01b039091168152602090f35b34610305575f366003190112610305576112b26125b3565b6112ba6127e3565b600160ff1960075416176007557f62e78cea01bee320cd4e420270b5ea74000d11b0c9f74754ebdbfc544b05a2586020604051338152a1005b34610305575f366003190112610305576020600a54604051908152f35b34610305575f366003190112610305576113286125b3565b600580546001600160a01b031981169091555f906001600160a01b03167f8be0079c531659141344cd1fd0a4f28419497f9722a3daafe3b4186f6b6457e08280a3005b346103055760203660031901126103055760206102fd610447612587565b34610305576040366003190112610305576113a261259d565b6004355f52601560205260405f209060018060a01b03165f52602052602060405f2054604051908152f35b34610305576020366003190112610305576004356113e96125b3565b6113f1612827565b6113fc811515612755565b600b5461140b82821015612b60565b8181039081116105d957600b5561142381333061287d565b6040519081527f41fdd680478135993bc53fb2ffaf9560951b57ef62ff6badd02b61e018b4f17f60203392a26001600655005b34610305576020366003190112610305576004355f526014602052602060405f2054604051908152f35b34610305575f3660031901126103055760206040516202a3008152f35b34610305575f366003190112610305576020600854604051908152f35b34610305576020366003190112610305576004359067ffffffffffffffff8211610305573660238301121561030557816004013567ffffffffffffffff81116117ff5760405192611515601f8301601f191660200185612486565b818452366024838301011161030557815f926024602093018387013784010152335f52600f60205269021e19e0c9bab240000060405f20541061189d5781511561185857335f52601360205260405f205442034281116105d95762015180116118135760095490600182018083116105d957600955611592612716565b9062093a8042018042116105d957604051906115ad8261244d565b84825233602083015260408201525f60608201525f60808201525f60a08201525f60c0820152848282015282610100820152835f52601060205260405f2090805182556001820160018060a01b036020830151166001600160601b0360a01b82541617905560408101516002830155606081015160038301556080810151600483015560a0810151600583015561165960c08201511515600684019060ff801983541691151516179055565b600782019281015180519067ffffffffffffffff82116117ff5761167d85546123f9565b601f81116117ba575b5091869391602098938990601f831160011461172957968261010093600895937f98120a6aaa04295520ab4e01c6c1235dd316e822cc9ff31db7b3f197366d18bd999a5f9261171e575b50508160011b915f199060031b1c19161790555b0151910155335f52601386524260405f205561170b60405191604083526040830190612549565b93868201528033940390a3604051908152f35b015190508d806116d0565b601f9792919719821690835f528b5f20915f5b8181106117a057509261010094927f98120a6aaa04295520ab4e01c6c1235dd316e822cc9ff31db7b3f197366d18bd999a600193836008999710611788575b505050811b0190556116e4565b01515f1960f88460031b161c191690558d808061177b565b828b01518455998d01998c99506001909301928d0161173c565b855f5260205f20601f840160051c810191602085106117f5575b601f0160051c01905b8181106117ea5750611686565b5f81556001016117dd565b90915081906117d4565b634e487b7160e01b5f52604160045260245ffd5b60405162461bcd60e51b815260206004820152601760248201527f44535744414f3a20436f6f6c646f776e206163746976650000000000000000006044820152606490fd5b60405162461bcd60e51b815260206004820152601960248201527f44535744414f3a20456d707479206465736372697074696f6e000000000000006044820152606490fd5b60405162461bcd60e51b815260206004820152602160248201527f44535744414f3a20496e73756666696369656e7420766f74696e6720706f77656044820152603960f91b6064820152608490fd5b34610305575f366003190112610305576020604051620151808152f35b34610305575f366003190112610305576119216125b3565b60075460ff8116156119665760ff19166007557f5db9ee0a495bf2e6ff9c91a7834c1ba4fdd244a5e8aa4e537bd38aeae4b073aa6020604051338152a161059f612716565b60405162461bcd60e51b815260206004820152601460248201527314185d5cd8589b194e881b9bdd081c185d5cd95960621b6044820152606490fd5b34610305576040366003190112610305576110ae6119be612587565b335f52600160205260405f2060018060a01b0382165f526020526119e860243560405f205461260b565b9033612618565b34610305575f36600319011261030557611a07612827565b611a0f6127e3565b335f526020600e8152600360405f20611a2e60ff6004830154166129ea565b611a3733612a2f565b01908154918215611b73576a52b7d2dcc80cd2e4000000611a5a8460025461260b565b11611b2e575f90553315611aea577ffc30cddea38e2bf4d6ea7d3f9ed3b6ad7f176419f4963bd81318067a4aee73fe90611a968360025461260b565b600255335f525f815260405f208381540190556040518381525f7fddf252ad1be2c89b69c2b068fc378daa952ba7f163c4a11628f55a4df523b3ef833393a3335f52600f8152610f508360405f205461260b565b6064906040519062461bcd60e51b82526004820152601f60248201527f45524332303a206d696e7420746f20746865207a65726f2061646472657373006044820152fd5b60405162461bcd60e51b815260048101839052601b60248201527f44535744414f3a204d617820737570706c7920657863656564656400000000006044820152606490fd5b60405162461bcd60e51b815260048101839052601260248201527144535744414f3a204e6f207265776172647360701b6044820152606490fd5b34610305575f3660031901126103055760206040516a52b7d2dcc80cd2e40000008152f35b34610305575f366003190112610305576020600b54604051908152f35b34610305575f36600319011261030557602060405160128152f35b34610305575f3660031901126103055760206040516a108b2a2c280290940000008152f35b34610305576020806003193601126103055760043590611c4d612827565b611c556127e3565b611c60821515612755565b335f52600e815260405f209060048201611c7d60ff8254166129ea565b83835410611d6157611c8e33612a2f565b82548481039081116105d9578355600a548481039081116105d957600a55335f52600f825260405f2054928484039384116105d9577f0f5bb82176feb1b5e747e28471aa92156a04d9f3ab9f45f28e2d704232b93f7593335f52600f845260405f20555415611d53575b505f815260405f2054600d545f526015825260405f20335f52825260405f2055600f815260405f2054600d545f526016825260405f20335f52825260405f2055611d4383333061287d565b6040519283523392a26001600655005b805460ff1916905583611cf8565b60405162461bcd60e51b815260048101839052602260248201527f44535744414f3a20496e73756666696369656e74207374616b656420616d6f756044820152611b9d60f21b6064820152608490fd5b3461030557606036600319011261030557611dca612587565b611dd261259d565b604435611ddd6127e3565b6001600160a01b038381169190611df5831515612bba565b831692611e03841515612bba565b611e0e821515612755565b825f526020946001865260405f20335f52865260405f20545f198103611e8a575b5090611e3b929161287d565b805f525f835260405f205490600d545f526015845260405f20905f52835260405f2055805f525f825260405f205490600d545f526015835260405f20905f52825260405f205560405160018152f35b838110611eac5790611ea484611e3b959493033383612618565b909192611e2f565b60405162461bcd60e51b815260048101889052601d60248201527f45524332303a20696e73756666696369656e7420616c6c6f77616e63650000006044820152606490fd5b34610305575f366003190112610305576020600254604051908152f35b34610305576020366003190112610305576001600160a01b03611f2f612587565b165f52600e60205260a060405f20805490600181015490600281015460ff60046003840154930154169260405194855260208501526040840152606083015215156080820152f35b3461030557606036600319011261030557611f90612587565b602435604435611f9e6125b3565b6001600160a01b0392831692611fb5841515612bba565b611fc0831515612755565b611fce83600b541015612b60565b6202a300821061209f57612053906003611fe8844261260b565b9160405192611ff684612431565b868452602084018881526040850191825260608501925f8452895f52601260205260405f2095518655600186019151166001600160601b0360a01b82541617905551600284015551151591019060ff801983541691151516179055565b600b54918083039283116105d9576120926040927f3a6d15187773f6d41c5c39410d72d1f4107d989b539baef5b8d1b700f6a6cdf694600b554261260b565b82519182526020820152a2005b60405162461bcd60e51b815260206004820152601760248201527f44535744414f3a2044656c617920746f6f2073686f72740000000000000000006044820152606490fd5b34610305575f366003190112610305576120fc6125b3565b60206102fd612716565b346103055760203660031901126103055760806001600160a01b038061212a612587565b165f52601260205260405f208054916001820154169060ff6003600283015492015416916040519384526020840152604083015215156060820152f35b3461030557602036600319011261030557600435612183612827565b805f52601060205260405f2061219b82825414612ac8565b600281015442111561224a576006810180546121ba60ff821615612b14565b6004830154600584015410156122055760019060ff19161790556003429101557f712ae1383f79ac853f8d882153778e0260ef8f03b504e2866e0593e04d2b291f5f80a26001600655005b60405162461bcd60e51b815260206004820152601960248201527f44535744414f3a2050726f706f73616c2072656a6563746564000000000000006044820152606490fd5b60405162461bcd60e51b815260206004820152601660248201527544535744414f3a20566f74696e67206f6e676f696e6760501b6044820152606490fd5b34610305576040366003190112610305576110ae6122a4612587565b6024359033612618565b34610305575f366003190112610305576040515f6003546122ce816123f9565b8084529060019081811690811561124b57506001146122f7576111ed846111d981860382612486565b60035f90815292507fc2575a0e9e593c00f959f8c92f12db2869c3395a3b0502d05e2516446f71f85b5b8284106123395750505081016020016111d9826111c9565b80546020858701810191909152909301928101612321565b34610305576020366003190112610305576004355f52601060205260405f20908154906123ee60018060a01b03600185015416936002810154926003820154600483015460058401549060ff6006860154169260086123b2600788016124a8565b960154976040519a8b9a8b5260208b015260408a01526060890152608088015260a0870152151560c08601526101208091860152840190612549565b906101008301520390f35b90600182811c92168015612427575b602083101461241357565b634e487b7160e01b5f52602260045260245ffd5b91607f1691612408565b6080810190811067ffffffffffffffff8211176117ff57604052565b610120810190811067ffffffffffffffff8211176117ff57604052565b60a0810190811067ffffffffffffffff8211176117ff57604052565b90601f8019910116810190811067ffffffffffffffff8211176117ff57604052565b9060405191825f8254926124bb846123f9565b9081845260019485811690815f1461252657506001146124e6575b50506124e492500383612486565b565b909391505f52602090815f20935f915b81831061250e5750506124e493508201015f806124d6565b855488840185015294850194879450918301916124f6565b9150506124e494506020925060ff191682840152151560051b8201015f806124d6565b91908251928382525f5b848110612573575050825f602080949584010152601f8019910116010190565b602081830181015184830182015201612553565b600435906001600160a01b038216820361030557565b602435906001600160a01b038216820361030557565b6005546001600160a01b031633036125c757565b606460405162461bcd60e51b815260206004820152602060248201527f4f776e61626c653a2063616c6c6572206973206e6f7420746865206f776e65726044820152fd5b919082018092116105d957565b6001600160a01b039081169182156126c557169182156126755760207f8c5be1e5ebec7d5bd14f71427d1e84f3dd0314c0f7b2291e5b200ac8c7c3b92591835f526001825260405f20855f5282528060405f2055604051908152a3565b60405162461bcd60e51b815260206004820152602260248201527f45524332303a20617070726f766520746f20746865207a65726f206164647265604482015261737360f01b6064820152608490fd5b60405162461bcd60e51b8152602060048201526024808201527f45524332303a20617070726f76652066726f6d20746865207a65726f206164646044820152637265737360e01b6064820152608490fd5b43600d55600254435f52601460205260405f2055600d54807fb3f0c2b18fd39e8cee5f554c26a84565b651237746f9b33337e40d5abab734005f80a290565b1561275c57565b60405162461bcd60e51b81526020600482015260136024820152721114d5d11053ce8816995c9bc8185b5bdd5b9d606a1b6044820152606490fd5b1561279e57565b60405162461bcd60e51b815260206004820152601c60248201527f44535744414f3a20496e73756666696369656e742062616c616e6365000000006044820152606490fd5b60ff600754166127ef57565b60405162461bcd60e51b815260206004820152601060248201526f14185d5cd8589b194e881c185d5cd95960821b6044820152606490fd5b600260065414612838576002600655565b60405162461bcd60e51b815260206004820152601f60248201527f5265656e7472616e637947756172643a207265656e7472616e742063616c6c006044820152606490fd5b6001600160a01b039081169182156129975716918215612946575f828152806020526040812054918083106128f257604082827fddf252ad1be2c89b69c2b068fc378daa952ba7f163c4a11628f55a4df523b3ef958760209652828652038282205586815220818154019055604051908152a3565b60405162461bcd60e51b815260206004820152602660248201527f45524332303a207472616e7366657220616d6f756e7420657863656564732062604482015265616c616e636560d01b6064820152608490fd5b60405162461bcd60e51b815260206004820152602360248201527f45524332303a207472616e7366657220746f20746865207a65726f206164647260448201526265737360e81b6064820152608490fd5b60405162461bcd60e51b815260206004820152602560248201527f45524332303a207472616e736665722066726f6d20746865207a65726f206164604482015264647265737360d81b6064820152608490fd5b156129f157565b60405162461bcd60e51b81526020600482015260166024820152751114d5d11053ce88139bc81cdd185ad948199bdd5b9960521b6044820152606490fd5b6001600160a01b03165f908152600e60205260409020600481015460ff16158015612aac575b612aa95760028101908154804303904382116105d9574314612aa4576003630c880200612a92612a9d93612a8d865460085490612ab5565b612ab5565b04920191825461260b565b9055439055565b505050565b50565b50805415612a55565b818102929181159184041417156105d957565b15612acf57565b60405162461bcd60e51b815260206004820152601860248201527f44535744414f3a20496e76616c69642070726f706f73616c00000000000000006044820152606490fd5b15612b1b57565b60405162461bcd60e51b815260206004820152601860248201527f44535744414f3a20416c726561647920657865637574656400000000000000006044820152606490fd5b15612b6757565b60405162461bcd60e51b815260206004820152602560248201527f44535744414f3a20496e73756666696369656e742074726561737572792062616044820152646c616e636560d81b6064820152608490fd5b15612bc157565b60405162461bcd60e51b815260206004820152601460248201527344535744414f3a205a65726f206164647265737360601b6044820152606490fd5b60018060a01b03165f52600e60205260405f20604051612c1c8161246a565b8154908181526001830154602082015260028301549182604083015260ff600460038601549560608501968752015416159081159182608085015291612ca6575b50612c9f57814303914383116105d9574314612c9957612c8e612c969392612a8d630c880200935160085490612ab5565b04905161260b565b90565b50505190565b5050505f90565b9050155f612c5d565b9190811015612cbf5760051b0190565b634e487b7160e01b5f52603260045260245ffd5b356001600160a01b0381168103610305579056fea2646970667358221220bb2db783946ad858c62ffc08228b5fcba155a5460b7c079c9684752d1eb4683364736f6c63430008140033","linkReferences":{}},"methodIdentifiers":{"BLOCKS_PER_YEAR()":"d37db1d2","INITIAL_SUPPLY()":"2ff2e9dc","MAX_STAKING_RATE()":"d04053eb","MAX_SUPPLY()":"32cb6b0c","MIN_STAKE()":"cb1c2b5c","PROPOSAL_COOLDOWN()":"467f67f9","PROPOSAL_THRESHOLD()":"a6c26603","TIMELOCK_DELAY()":"5ba1c1a9","allowance(address,address)":"dd62ed3e","approve(address,uint256)":"095ea7b3","balanceOf(address)":"70a08231","claimRewards()":"372500ab","createProposal(string)":"49c2a1a6","createSnapshot()":"1504d8f0","createTimelock(address,uint256,uint256)":"15800d14","currentSnapshotId()":"970875ce","decimals()":"313ce567","decreaseAllowance(address,uint256)":"a457c2d7","depositToTreasury(uint256)":"c0e58a0e","emergencyWithdraw()":"db2e21bc","executeProposal(uint256)":"0d61b519","executeTimelock()":"aa5134ba","getCurrentSnapshotId()":"5439ad86","getPendingRewards(address)":"f6ed2017","getProposal(uint256)":"c7f758a8","getSnapshotBalance(uint256,address)":"65e789a7","getSnapshotVotingPower(uint256,address)":"7d7510e6","getTimelock(address)":"bf1e799b","getVotingPower(address)":"bb4d4436","increaseAllowance(address,uint256)":"39509351","initializeSnapshotData(address[])":"edfe6c4b","isPaused()":"b187bd26","lastRewardUpdate()":"a3c2710d","name()":"06fdde03","owner()":"8da5cb5b","pause()":"8456cb59","paused()":"5c975abb","proposalCount()":"da35c664","proposalCreationTime(address)":"cdee152e","proposals(uint256)":"013cf08b","renounceOwnership()":"715018a6","setStakingRewardRate(uint256)":"b7d68519","snapshotBalanceOf(uint256,address)":"634daf76","snapshotTotalSupply(uint256)":"5ee7a942","snapshotVotingPower(uint256,address)":"b023a0d6","stake(uint256)":"a694fc3a","stakes(address)":"16934fc4","stakingRewardRate()":"4f3fc2df","symbol()":"95d89b41","timelocks(address)":"1369a927","totalStaked()":"817b1cd2","totalSupply()":"18160ddd","transfer(address,uint256)":"a9059cbb","transferFrom(address,address,uint256)":"23b872dd","transferOwnership(address)":"f2fde38b","treasuryBalance()":"313dab20","unpause()":"3f4ba83a","unstake(uint256)":"2e17de78","vote(uint256,bool)":"c9d27afe","votes(address,uint256)":"9f2524ee","votingPower(address)":"c07473f6","withdrawFromTreasury(uint256)":"63555624"},"id":28}